{
  "contractName": "JoyToken",
  "abi": [
    {
      "inputs": [
        {
          "internalType": "string",
          "name": "name_",
          "type": "string"
        },
        {
          "internalType": "string",
          "name": "symbol_",
          "type": "string"
        }
      ],
      "stateMutability": "nonpayable",
      "type": "constructor"
    },
    {
      "anonymous": false,
      "inputs": [
        {
          "indexed": true,
          "internalType": "address",
          "name": "owner",
          "type": "address"
        },
        {
          "indexed": true,
          "internalType": "address",
          "name": "spender",
          "type": "address"
        },
        {
          "indexed": false,
          "internalType": "uint256",
          "name": "amount",
          "type": "uint256"
        }
      ],
      "name": "Approval",
      "type": "event"
    },
    {
      "anonymous": false,
      "inputs": [
        {
          "indexed": true,
          "internalType": "address",
          "name": "from",
          "type": "address"
        },
        {
          "indexed": true,
          "internalType": "address",
          "name": "to",
          "type": "address"
        },
        {
          "indexed": false,
          "internalType": "uint256",
          "name": "amount",
          "type": "uint256"
        }
      ],
      "name": "Transfer",
      "type": "event"
    },
    {
      "inputs": [
        {
          "internalType": "address",
          "name": "addr",
          "type": "address"
        }
      ],
      "name": "getBalance",
      "outputs": [
        {
          "internalType": "uint256",
          "name": "",
          "type": "uint256"
        }
      ],
      "stateMutability": "view",
      "type": "function",
      "constant": true
    },
    {
      "inputs": [
        {
          "internalType": "address",
          "name": "addr",
          "type": "address"
        }
      ],
      "name": "getBalanceInEth",
      "outputs": [
        {
          "internalType": "uint256",
          "name": "",
          "type": "uint256"
        }
      ],
      "stateMutability": "view",
      "type": "function",
      "constant": true
    },
    {
      "inputs": [
        {
          "internalType": "address",
          "name": "to",
          "type": "address"
        },
        {
          "internalType": "uint256",
          "name": "amount",
          "type": "uint256"
        }
      ],
      "name": "transfer",
      "outputs": [
        {
          "internalType": "bool",
          "name": "",
          "type": "bool"
        }
      ],
      "stateMutability": "nonpayable",
      "type": "function"
    },
    {
      "inputs": [
        {
          "internalType": "address",
          "name": "owner",
          "type": "address"
        },
        {
          "internalType": "address",
          "name": "spender",
          "type": "address"
        },
        {
          "internalType": "uint256",
          "name": "amount",
          "type": "uint256"
        }
      ],
      "name": "approve",
      "outputs": [
        {
          "internalType": "bool",
          "name": "",
          "type": "bool"
        }
      ],
      "stateMutability": "nonpayable",
      "type": "function"
    },
    {
      "inputs": [
        {
          "internalType": "address",
          "name": "from",
          "type": "address"
        },
        {
          "internalType": "address",
          "name": "to",
          "type": "address"
        },
        {
          "internalType": "uint256",
          "name": "amount",
          "type": "uint256"
        }
      ],
      "name": "transferFrom",
      "outputs": [
        {
          "internalType": "bool",
          "name": "",
          "type": "bool"
        }
      ],
      "stateMutability": "nonpayable",
      "type": "function"
    }
  ],
  "bytecode": "0x60806040523480156200001157600080fd5b506040516200111538038062001115833981810160405281019062000037919062000303565b81600290805190602001906200004f929190620000b6565b50806003908051906020019062000068929190620000b6565b506127106000803273ffffffffffffffffffffffffffffffffffffffff1673ffffffffffffffffffffffffffffffffffffffff168152602001908152602001600020819055505050620003ec565b828054620000c490620003b7565b90600052602060002090601f016020900481019282620000e8576000855562000134565b82601f106200010357805160ff191683800117855562000134565b8280016001018555821562000134579182015b828111156200013357825182559160200191906001019062000116565b5b50905062000143919062000147565b5090565b5b808211156200016257600081600090555060010162000148565b5090565b6000604051905090565b600080fd5b600080fd5b600080fd5b600080fd5b6000601f19601f8301169050919050565b7f4e487b7100000000000000000000000000000000000000000000000000000000600052604160045260246000fd5b620001cf8262000184565b810181811067ffffffffffffffff82111715620001f157620001f062000195565b5b80604052505050565b60006200020662000166565b9050620002148282620001c4565b919050565b600067ffffffffffffffff82111562000237576200023662000195565b5b620002428262000184565b9050602081019050919050565b60005b838110156200026f57808201518184015260208101905062000252565b838111156200027f576000848401525b50505050565b60006200029c620002968462000219565b620001fa565b905082815260208101848484011115620002bb57620002ba6200017f565b5b620002c88482856200024f565b509392505050565b600082601f830112620002e857620002e76200017a565b5b8151620002fa84826020860162000285565b91505092915050565b600080604083850312156200031d576200031c62000170565b5b600083015167ffffffffffffffff8111156200033e576200033d62000175565b5b6200034c85828601620002d0565b925050602083015167ffffffffffffffff81111562000370576200036f62000175565b5b6200037e85828601620002d0565b9150509250929050565b7f4e487b7100000000000000000000000000000000000000000000000000000000600052602260045260246000fd5b60006002820490506001821680620003d057607f821691505b602082108103620003e657620003e562000388565b5b50919050565b610d1980620003fc6000396000f3fe608060405234801561001057600080fd5b50600436106100575760003560e01c806323b872dd1461005c5780637bd703e81461008c578063a9059cbb146100bc578063e1f21c67146100ec578063f8b2cb4f1461011c575b600080fd5b610076600480360381019061007191906107eb565b61014c565b6040516100839190610859565b60405180910390f35b6100a660048036038101906100a19190610874565b610273565b6040516100b391906108b0565b60405180910390f35b6100d660048036038101906100d191906108cb565b61028f565b6040516100e39190610859565b60405180910390f35b610106600480360381019061010191906107eb565b6102ab565b6040516101139190610859565b60405180910390f35b61013660048036038101906101319190610874565b61047b565b60405161014391906108b0565b60405180910390f35b60008033905060008590506000600160008873ffffffffffffffffffffffffffffffffffffffff1673ffffffffffffffffffffffffffffffffffffffff16815260200190815260200160002060008473ffffffffffffffffffffffffffffffffffffffff1673ffffffffffffffffffffffffffffffffffffffff1681526020019081526020016000205490507fffffffffffffffffffffffffffffffffffffffffffffffffffffffffffffffff81146102435784811015610242576040517f08c379a000000000000000000000000000000000000000000000000000000000815260040161023990610968565b60405180910390fd5b5b6102598284878461025491906109b7565b6102ab565b506102658787876104c3565b600193505050509392505050565b60006102886102818361047b565b600261073c565b9050919050565b6000803390506102a08185856104c3565b600191505092915050565b60008073ffffffffffffffffffffffffffffffffffffffff168473ffffffffffffffffffffffffffffffffffffffff160361031b576040517f08c379a000000000000000000000000000000000000000000000000000000000815260040161031290610a5d565b60405180910390fd5b600073ffffffffffffffffffffffffffffffffffffffff168373ffffffffffffffffffffffffffffffffffffffff160361038a576040517f08c379a000000000000000000000000000000000000000000000000000000000815260040161038190610a5d565b60405180910390fd5b81600160008673ffffffffffffffffffffffffffffffffffffffff1673ffffffffffffffffffffffffffffffffffffffff16815260200190815260200160002060008573ffffffffffffffffffffffffffffffffffffffff1673ffffffffffffffffffffffffffffffffffffffff168152602001908152602001600020819055508273ffffffffffffffffffffffffffffffffffffffff168473ffffffffffffffffffffffffffffffffffffffff167f8c5be1e5ebec7d5bd14f71427d1e84f3dd0314c0f7b2291e5b200ac8c7c3b9258460405161046891906108b0565b60405180910390a3600190509392505050565b60008060008373ffffffffffffffffffffffffffffffffffffffff1673ffffffffffffffffffffffffffffffffffffffff168152602001908152602001600020549050919050565b600073ffffffffffffffffffffffffffffffffffffffff168373ffffffffffffffffffffffffffffffffffffffff1603610532576040517f08c379a000000000000000000000000000000000000000000000000000000000815260040161052990610aef565b60405180910390fd5b600073ffffffffffffffffffffffffffffffffffffffff168273ffffffffffffffffffffffffffffffffffffffff16036105a1576040517f08c379a000000000000000000000000000000000000000000000000000000000815260040161059890610b81565b60405180910390fd5b60008060008573ffffffffffffffffffffffffffffffffffffffff1673ffffffffffffffffffffffffffffffffffffffff16815260200190815260200160002054905081811015610627576040517f08c379a000000000000000000000000000000000000000000000000000000000815260040161061e90610c13565b60405180910390fd5b816000808673ffffffffffffffffffffffffffffffffffffffff1673ffffffffffffffffffffffffffffffffffffffff168152602001908152602001600020600082825461067591906109b7565b92505081905550816000808573ffffffffffffffffffffffffffffffffffffffff1673ffffffffffffffffffffffffffffffffffffffff16815260200190815260200160002060008282546106ca9190610c33565b925050819055508273ffffffffffffffffffffffffffffffffffffffff168473ffffffffffffffffffffffffffffffffffffffff167fddf252ad1be2c89b69c2b068fc378daa952ba7f163c4a11628f55a4df523b3ef8460405161072e91906108b0565b60405180910390a350505050565b6000818361074a9190610c89565b905092915050565b600080fd5b600073ffffffffffffffffffffffffffffffffffffffff82169050919050565b600061078282610757565b9050919050565b61079281610777565b811461079d57600080fd5b50565b6000813590506107af81610789565b92915050565b6000819050919050565b6107c8816107b5565b81146107d357600080fd5b50565b6000813590506107e5816107bf565b92915050565b60008060006060848603121561080457610803610752565b5b6000610812868287016107a0565b9350506020610823868287016107a0565b9250506040610834868287016107d6565b9150509250925092565b60008115159050919050565b6108538161083e565b82525050565b600060208201905061086e600083018461084a565b92915050565b60006020828403121561088a57610889610752565b5b6000610898848285016107a0565b91505092915050565b6108aa816107b5565b82525050565b60006020820190506108c560008301846108a1565b92915050565b600080604083850312156108e2576108e1610752565b5b60006108f0858286016107a0565b9250506020610901858286016107d6565b9150509250929050565b600082825260208201905092915050565b7f45524332303a20696e73756666696369656e7420616c6c6f77616e6365000000600082015250565b6000610952601d8361090b565b915061095d8261091c565b602082019050919050565b6000602082019050818103600083015261098181610945565b9050919050565b7f4e487b7100000000000000000000000000000000000000000000000000000000600052601160045260246000fd5b60006109c2826107b5565b91506109cd836107b5565b9250828210156109e0576109df610988565b5b828203905092915050565b7f4552433a20617070726f76652066726f6d20746865207a65726f20616464726560008201527f7373000000000000000000000000000000000000000000000000000000000000602082015250565b6000610a4760228361090b565b9150610a52826109eb565b604082019050919050565b60006020820190508181036000830152610a7681610a3a565b9050919050565b7f4552433a207472616e736665722066726f6d20746865207a65726f206164647260008201527f6573730000000000000000000000000000000000000000000000000000000000602082015250565b6000610ad960238361090b565b9150610ae482610a7d565b604082019050919050565b60006020820190508181036000830152610b0881610acc565b9050919050565b7f4552433a207472616e7366657220746f20746865207a65726f2061646472657360008201527f7300000000000000000000000000000000000000000000000000000000000000602082015250565b6000610b6b60218361090b565b9150610b7682610b0f565b604082019050919050565b60006020820190508181036000830152610b9a81610b5e565b9050919050565b7f45524332303a207472616e7366657220616d6f756e742065786365656473206260008201527f616c616e63650000000000000000000000000000000000000000000000000000602082015250565b6000610bfd60268361090b565b9150610c0882610ba1565b604082019050919050565b60006020820190508181036000830152610c2c81610bf0565b9050919050565b6000610c3e826107b5565b9150610c49836107b5565b9250827fffffffffffffffffffffffffffffffffffffffffffffffffffffffffffffffff03821115610c7e57610c7d610988565b5b828201905092915050565b6000610c94826107b5565b9150610c9f836107b5565b9250817fffffffffffffffffffffffffffffffffffffffffffffffffffffffffffffffff0483118215151615610cd857610cd7610988565b5b82820290509291505056fea26469706673582212205d3aa3ca1bd15d9353cd070b634fbe7b2a7a8f0ac6db8127c54e5e15b24e7f1364736f6c634300080e0033",
  "immutableReferences": {},
  "source": "// SPDX-License-Identifier: MIT\npragma solidity ^0.8.0;\n\n\ncontract JoyToken {\n\n\n\n    // track balances\n    mapping(address => uint256) private _balanceOf;\n\n    // track allowances\n    mapping(address => mapping(address => uint256)) private _allowance;\n\n    string private _name;\n    string private _symbol;\n\n\n    event Transfer (\n        address indexed from,\n        address indexed to, \n        uint256 amount\n    );\n\n    event Approval (\n        address indexed owner,\n        address indexed spender,\n        uint256 amount\n    );\n\n\n    constructor(string memory name_, string memory symbol_) public {\n        _name = name_;\n        _symbol = symbol_;\n        _balanceOf[tx.origin] = 10000;\n    }    \n    \n\n    function getBalance(address addr) public view returns (uint256) { \n        return _balanceOf[addr];\n    }\n\n    function getBalanceInEth(address addr) public view returns (uint256) {\n        return _convert(getBalance(addr), 2);\n    }\n\n    function transfer(address to, uint256 amount) public virtual returns (bool) {\n        address owner = msg.sender;\n        _transfer(owner, to, amount);\n        return true;\n    }\n\n    function approve(address owner, address spender, uint256 amount) public virtual returns (bool) {\n        require(owner != address(0), \"ERC: approve from the zero address\");\n        require(spender != address(0), \"ERC: approve from the zero address\"); \n\n        _allowance[owner][spender] = amount;\n        emit Approval(owner, spender, amount);\n        return true;\n    }\n\n\n    function transferFrom(address from, address to, uint256 amount) public virtual returns (bool) {\n        address spender = msg.sender;\n        address owner = from; \n        uint256 currentAllowance = _allowance[from][spender];\n\n        if (currentAllowance != type(uint256).max) {\n            require(currentAllowance >= amount, \"ERC20: insufficient allowance\");\n        }\n            approve(owner, spender, currentAllowance - amount);\n            _transfer(from, to, amount);\n\n        return true;\n    }\n\n   function _transfer(address from, address to, uint256 amount) internal virtual {\n       require(from != address(0), \"ERC: transfer from the zero address\");\n       require(to != address(0), \"ERC: transfer to the zero address\");\n\n       uint256 fromBalance = _balanceOf[from];\n       require(fromBalance >= amount, \"ERC20: transfer amount exceeds balance\");\n       _balanceOf[from] -= amount;\n       _balanceOf[to] += amount;\n       emit Transfer(from, to, amount);\n   } \n\n   function _convert(uint amount,uint conversionRate) internal pure returns (uint convertedAmount)\n\t{\n\t\treturn amount * conversionRate;\n\t}\n\n}",
  "sourcePath": "/Users/wolfgangmorton/repo/defi-staking-app-starter/defi-staking-app-starter/src/contracts/JoyToken.sol",
  "compiler": {
    "name": "solc",
    "version": "0.8.14+commit.80d49f37.Emscripten.clang"
  },
  "schemaVersion": "3.4.7",
  "updatedAt": "2022-05-23T02:49:54.619Z",
  "networkType": "ethereum",
  "devdoc": {
    "kind": "dev",
    "methods": {},
    "version": 1
  },
  "userdoc": {
    "kind": "user",
    "methods": {},
    "version": 1
  }
}